{
  "abi": [
    {
      "type": "constructor",
      "inputs": [
        {
          "internalType": "address",
          "name": "_feeToSetter",
          "type": "address"
        }
      ]
    },
    {
      "type": "function",
      "name": "allPairs",
      "inputs": [
        {
          "internalType": "uint256",
          "name": "",
          "type": "uint256"
        }
      ],
      "outputs": [
        {
          "internalType": "address",
          "name": "",
          "type": "address"
        }
      ],
      "constant": true,
      "stateMutability": "view"
    },
    {
      "type": "function",
      "name": "allPairsLength",
      "inputs": [],
      "outputs": [
        {
          "internalType": "uint256",
          "name": "",
          "type": "uint256"
        }
      ],
      "constant": true,
      "stateMutability": "view"
    },
    {
      "type": "function",
      "name": "createPair",
      "inputs": [
        {
          "internalType": "address",
          "name": "tokenA",
          "type": "address"
        },
        {
          "internalType": "address",
          "name": "tokenB",
          "type": "address"
        }
      ],
      "outputs": [
        {
          "internalType": "address",
          "name": "pair",
          "type": "address"
        }
      ],
      "constant": false,
      "stateMutability": "nonpayable"
    },
    {
      "type": "function",
      "name": "feeTo",
      "inputs": [],
      "outputs": [
        {
          "internalType": "address",
          "name": "",
          "type": "address"
        }
      ],
      "constant": true,
      "stateMutability": "view"
    },
    {
      "type": "function",
      "name": "feeToSetter",
      "inputs": [],
      "outputs": [
        {
          "internalType": "address",
          "name": "",
          "type": "address"
        }
      ],
      "constant": true,
      "stateMutability": "view"
    },
    {
      "type": "function",
      "name": "getPair",
      "inputs": [
        {
          "internalType": "address",
          "name": "",
          "type": "address"
        },
        {
          "internalType": "address",
          "name": "",
          "type": "address"
        }
      ],
      "outputs": [
        {
          "internalType": "address",
          "name": "",
          "type": "address"
        }
      ],
      "constant": true,
      "stateMutability": "view"
    },
    {
      "type": "function",
      "name": "setFeeTo",
      "inputs": [
        {
          "internalType": "address",
          "name": "_feeTo",
          "type": "address"
        }
      ],
      "outputs": [],
      "constant": false,
      "stateMutability": "nonpayable"
    },
    {
      "type": "function",
      "name": "setFeeToSetter",
      "inputs": [
        {
          "internalType": "address",
          "name": "_feeToSetter",
          "type": "address"
        }
      ],
      "outputs": [],
      "constant": false,
      "stateMutability": "nonpayable"
    },
    {
      "type": "event",
      "name": "PairCreated",
      "inputs": [
        {
          "name": "token0",
          "type": "address",
          "indexed": true
        },
        {
          "name": "token1",
          "type": "address",
          "indexed": true
        },
        {
          "name": "pair",
          "type": "address",
          "indexed": false
        },
        {
          "name": "",
          "type": "uint256",
          "indexed": false
        }
      ],
      "anonymous": false
    }
  ],
  "bytecode": {
    "object": "0x608060405234801561001057600080fd5b50604051612b03380380612b038339818101604052602081101561003357600080fd5b5051600180546001600160a01b0319166001600160a01b03909216919091179055612aa0806100636000396000f3fe608060405234801561001057600080fd5b50600436106100885760003560e01c8063a2e74af61161005b578063a2e74af6146100f0578063c9c6539614610118578063e6a4390514610146578063f46901ed1461017457610088565b8063017e7e581461008d578063094b7415146100b15780631e3dd18b146100b9578063574f2ba3146100d6575b600080fd5b61009561019a565b604080516001600160a01b039092168252519081900360200190f35b6100956101a9565b610095600480360360208110156100cf57600080fd5b50356101b8565b6100de6101df565b60408051918252519081900360200190f35b6101166004803603602081101561010657600080fd5b50356001600160a01b03166101e5565b005b6100956004803603604081101561012e57600080fd5b506001600160a01b038135811691602001351661025d565b6100956004803603604081101561015c57600080fd5b506001600160a01b038135811691602001351661058e565b6101166004803603602081101561018a57600080fd5b50356001600160a01b03166105b4565b6000546001600160a01b031681565b6001546001600160a01b031681565b600381815481106101c557fe5b6000918252602090912001546001600160a01b0316905081565b60035490565b6001546001600160a01b0316331461023b576040805162461bcd60e51b81526020600482015260146024820152732ab734b9bbb0b82b191d102327a92124a22222a760611b604482015290519081900360640190fd5b600180546001600160a01b0319166001600160a01b0392909216919091179055565b6000816001600160a01b0316836001600160a01b031614156102c6576040805162461bcd60e51b815260206004820152601e60248201527f556e697377617056323a204944454e544943414c5f4144445245535345530000604482015290519081900360640190fd5b600080836001600160a01b0316856001600160a01b0316106102e95783856102ec565b84845b90925090506001600160a01b03821661034c576040805162461bcd60e51b815260206004820152601760248201527f556e697377617056323a205a45524f5f41444452455353000000000000000000604482015290519081900360640190fd5b6001600160a01b038281166000908152600260209081526040808320858516845290915290205416156103bf576040805162461bcd60e51b8152602060048201526016602482015275556e697377617056323a20504149525f45584953545360501b604482015290519081900360640190fd5b6060604051806020016103d19061062c565b6020820181038252601f19601f8201166040525090506000838360405160200180836001600160a01b03166001600160a01b031660601b8152601401826001600160a01b03166001600160a01b031660601b815260140192505050604051602081830303815290604052805190602001209050808251602084016000f56040805163485cc95560e01b81526001600160a01b038781166004830152868116602483015291519297509087169163485cc9559160448082019260009290919082900301818387803b1580156104a457600080fd5b505af11580156104b8573d6000803e3d6000fd5b505050506001600160a01b0384811660008181526002602081815260408084208987168086529083528185208054978d166001600160a01b031998891681179091559383528185208686528352818520805488168517905560038054600181018255958190527fc2575a0e9e593c00f959f8c92f12db2869c3395a3b0502d05e2516446f71f85b90950180549097168417909655925483519283529082015281517f0d3648bd0f6ba80134a33ba9275ac585d9d315f0ad8355cddefde31afa28d0e9929181900390910190a35050505092915050565b60026020908152600092835260408084209091529082529020546001600160a01b031681565b6001546001600160a01b0316331461060a576040805162461bcd60e51b81526020600482015260146024820152732ab734b9bbb0b82b191d102327a92124a22222a760611b604482015290519081900360640190fd5b600080546001600160a01b0319166001600160a01b0392909216919091179055565b6124328061063a8339019056fe60806040526001600c5534801561001557600080fd5b5060405146908060526123e08239604080519182900360520182208282018252600a8352692ab734b9bbb0b8102b1960b11b6020938401528151808301835260018152603160f81b908401528151808401919091527fbfcc8ef98ffbf7b6c3fec7bf5185b566b9863e35a9d83acd49ad6824b5969738818301527fc89efdaa54c0f20c7adf612882df0950f5a951637e0307cdcb4c672f298b8bc6606082015260808101949094523060a0808601919091528151808603909101815260c09094019052825192019190912060035550600580546001600160a01b031916331790556122db806101056000396000f3fe608060405234801561001057600080fd5b50600436106101a95760003560e01c80636a627842116100f9578063ba9a7a5611610097578063d21220a711610071578063d21220a714610534578063d505accf1461053c578063dd62ed3e1461058d578063fff6cae9146105bb576101a9565b8063ba9a7a56146104fe578063bc25cf7714610506578063c45a01551461052c576101a9565b80637ecebe00116100d35780637ecebe001461046557806389afcb441461048b57806395d89b41146104ca578063a9059cbb146104d2576101a9565b80636a6278421461041157806370a08231146104375780637464fc3d1461045d576101a9565b806323b872dd116101665780633644e515116101405780633644e515146103cb578063485cc955146103d35780635909c0d5146104015780635a3d549314610409576101a9565b806323b872dd1461036f57806330adf81f146103a5578063313ce567146103ad576101a9565b8063022c0d9f146101ae57806306fdde031461023c5780630902f1ac146102b9578063095ea7b3146102f15780630dfe16811461033157806318160ddd14610355575b600080fd5b61023a600480360360808110156101c457600080fd5b8135916020810135916001600160a01b0360408301351691908101906080810160608201356401000000008111156101fb57600080fd5b82018360208201111561020d57600080fd5b8035906020019184600183028401116401000000008311171561022f57600080fd5b5090925090506105c3565b005b610244610b5d565b6040805160208082528351818301528351919283929083019185019080838360005b8381101561027e578181015183820152602001610266565b50505050905090810190601f1680156102ab5780820380516001836020036101000a031916815260200191505b509250505060405180910390f35b6102c1610b83565b604080516001600160701b03948516815292909316602083015263ffffffff168183015290519081900360600190f35b61031d6004803603604081101561030757600080fd5b506001600160a01b038135169060200135610bad565b604080519115158252519081900360200190f35b610339610bc4565b604080516001600160a01b039092168252519081900360200190f35b61035d610bd3565b60408051918252519081900360200190f35b61031d6004803603606081101561038557600080fd5b506001600160a01b03813581169160208101359091169060400135610bd9565b61035d610c73565b6103b5610c97565b6040805160ff9092168252519081900360200190f35b61035d610c9c565b61023a600480360360408110156103e957600080fd5b506001600160a01b0381358116916020013516610ca2565b61035d610d26565b61035d610d2c565b61035d6004803603602081101561042757600080fd5b50356001600160a01b0316610d32565b61035d6004803603602081101561044d57600080fd5b50356001600160a01b031661102d565b61035d61103f565b61035d6004803603602081101561047b57600080fd5b50356001600160a01b0316611045565b6104b1600480360360208110156104a157600080fd5b50356001600160a01b0316611057565b6040805192835260208301919091528051918290030190f35b6102446113fd565b61031d600480360360408110156104e857600080fd5b506001600160a01b03813516906020013561141f565b61035d61142c565b61023a6004803603602081101561051c57600080fd5b50356001600160a01b0316611432565b61033961159d565b6103396115ac565b61023a600480360360e081101561055257600080fd5b506001600160a01b03813581169160208101359091169060408101359060608101359060ff6080820135169060a08101359060c001356115bb565b61035d600480360360408110156105a357600080fd5b506001600160a01b03813581169160200135166117bd565b61023a6117da565b600c5460011461060e576040805162461bcd60e51b8152602060048201526011602482015270155b9a5cddd85c158c8e881313d0d2d151607a1b604482015290519081900360640190fd5b6000600c55841515806106215750600084115b61065c5760405162461bcd60e51b81526004018080602001828103825260258152602001806121ed6025913960400191505060405180910390fd5b600080610667610b83565b5091509150816001600160701b03168710801561068c5750806001600160701b031686105b6106c75760405162461bcd60e51b81526004018080602001828103825260218152602001806122366021913960400191505060405180910390fd5b60065460075460009182916001600160a01b039182169190811690891682148015906107055750806001600160a01b0316896001600160a01b031614155b61074e576040805162461bcd60e51b8152602060048201526015602482015274556e697377617056323a20494e56414c49445f544f60581b604482015290519081900360640190fd5b8a1561075f5761075f828a8d61193c565b891561077057610770818a8c61193c565b861561082b57886001600160a01b03166310d1e85c338d8d8c8c6040518663ffffffff1660e01b815260040180866001600160a01b03166001600160a01b03168152602001858152602001848152602001806020018281038252848482818152602001925080828437600081840152601f19601f8201169050808301925050509650505050505050600060405180830381600087803b15801561081257600080fd5b505af1158015610826573d6000803e3d6000fd5b505050505b604080516370a0823160e01b815230600482015290516001600160a01b038416916370a08231916024808301926020929190829003018186803b15801561087157600080fd5b505afa158015610885573d6000803e3d6000fd5b505050506040513d602081101561089b57600080fd5b5051604080516370a0823160e01b815230600482015290519195506001600160a01b038316916370a0823191602480820192602092909190829003018186803b1580156108e757600080fd5b505afa1580156108fb573d6000803e3d6000fd5b505050506040513d602081101561091157600080fd5b5051925060009150506001600160701b0385168a90038311610934576000610943565b89856001600160701b03160383035b9050600089856001600160701b031603831161096057600061096f565b89856001600160701b03160383035b905060008211806109805750600081115b6109bb5760405162461bcd60e51b81526004018080602001828103825260248152602001806122126024913960400191505060405180910390fd5b60006401000000004206905060006008601c9054906101000a900463ffffffff16820390506000610a3e610a1f610a1a8463ffffffff16610a0e8d6001600160701b03168a611ad690919063ffffffff16565b9063ffffffff611ad616565b611b39565b610a328962046de163ffffffff611ad616565b9063ffffffff611b8b16565b90506000610a6e610a1f610a1a8563ffffffff16610a0e8d6001600160701b03168a611ad690919063ffffffff16565b9050610a9564139e315fc1610a0e6001600160701b038d8116908d1663ffffffff611ad616565b610aa5838363ffffffff611ad616565b1015610ae7576040805162461bcd60e51b815260206004820152600c60248201526b556e697377617056323a204b60a01b604482015290519081900360640190fd5b50505050610af784848888611bdb565b60408051838152602081018390528082018d9052606081018c905290516001600160a01b038b169133917fd78ad95fa46c994b6551d0da85fc275fe613ce37657fb8d5e3d130840159d8229181900360800190a350506001600c55505050505050505050565b6040518060400160405280600a8152602001692ab734b9bbb0b8102b1960b11b81525081565b6008546001600160701b0380821692600160701b830490911691600160e01b900463ffffffff1690565b6000610bba338484611da0565b5060015b92915050565b6006546001600160a01b031681565b60005481565b6001600160a01b038316600090815260026020908152604080832033845290915281205460001914610c5e576001600160a01b0384166000908152600260209081526040808320338452909152902054610c39908363ffffffff611b8b16565b6001600160a01b03851660009081526002602090815260408083203384529091529020555b610c69848484611e02565b5060019392505050565b7f6e71edae12b1b97f4d1f60370fef10105fa2faae0126114a169c64845d6126c981565b601281565b60035481565b6005546001600160a01b03163314610cf8576040805162461bcd60e51b81526020600482015260146024820152732ab734b9bbb0b82b191d102327a92124a22222a760611b604482015290519081900360640190fd5b600680546001600160a01b039384166001600160a01b03199182161790915560078054929093169116179055565b60095481565b600a5481565b6000600c54600114610d7f576040805162461bcd60e51b8152602060048201526011602482015270155b9a5cddd85c158c8e881313d0d2d151607a1b604482015290519081900360640190fd5b6000600c81905580610d8f610b83565b50600654604080516370a0823160e01b815230600482015290519395509193506000926001600160a01b03909116916370a08231916024808301926020929190829003018186803b158015610de357600080fd5b505afa158015610df7573d6000803e3d6000fd5b505050506040513d6020811015610e0d57600080fd5b5051600754604080516370a0823160e01b815230600482015290519293506000926001600160a01b03909216916370a0823191602480820192602092909190829003018186803b158015610e6057600080fd5b505afa158015610e74573d6000803e3d6000fd5b505050506040513d6020811015610e8a57600080fd5b505190506000610ea9836001600160701b03871663ffffffff611b8b16565b90506000610ec6836001600160701b03871663ffffffff611b8b16565b90506000610ed48787611ebc565b60005490915080610f0c57610ef86103e8610a32610a1a878763ffffffff611ad616565b9850610f0760006103e861201a565b610f5b565b610f586001600160701b038916610f29868463ffffffff611ad616565b81610f3057fe5b046001600160701b038916610f4b868563ffffffff611ad616565b81610f5257fe5b046120b0565b98505b60008911610f9a5760405162461bcd60e51b815260040180806020018281038252602881526020018061227f6028913960400191505060405180910390fd5b610fa48a8a61201a565b610fb086868a8a611bdb565b8115610fe057600854610fdc906001600160701b0380821691600160701b90041663ffffffff611ad616565b600b555b6040805185815260208101859052815133927f4c209b5fc8ad50758f13e2e1088ba56a560dff690a1c6fef26394f4c03821c4f928290030190a250506001600c5550949695505050505050565b60016020526000908152604090205481565b600b5481565b60046020526000908152604090205481565b600080600c546001146110a5576040805162461bcd60e51b8152602060048201526011602482015270155b9a5cddd85c158c8e881313d0d2d151607a1b604482015290519081900360640190fd5b6000600c819055806110b5610b83565b50600654600754604080516370a0823160e01b815230600482015290519496509294506001600160a01b039182169391169160009184916370a08231916024808301926020929190829003018186803b15801561111157600080fd5b505afa158015611125573d6000803e3d6000fd5b505050506040513d602081101561113b57600080fd5b5051604080516370a0823160e01b815230600482015290519192506000916001600160a01b038516916370a08231916024808301926020929190829003018186803b15801561118957600080fd5b505afa15801561119d573d6000803e3d6000fd5b505050506040513d60208110156111b357600080fd5b5051306000908152600160205260408120549192506111d28888611ebc565b600054909150806111e9848763ffffffff611ad616565b816111f057fe5b049a5080611204848663ffffffff611ad616565b8161120b57fe5b04995060008b11801561121e575060008a115b6112595760405162461bcd60e51b81526004018080602001828103825260288152602001806122576028913960400191505060405180910390fd5b61126330846120c8565b61126e878d8d61193c565b611279868d8c61193c565b604080516370a0823160e01b815230600482015290516001600160a01b038916916370a08231916024808301926020929190829003018186803b1580156112bf57600080fd5b505afa1580156112d3573d6000803e3d6000fd5b505050506040513d60208110156112e957600080fd5b5051604080516370a0823160e01b815230600482015290519196506001600160a01b038816916370a0823191602480820192602092909190829003018186803b15801561133557600080fd5b505afa158015611349573d6000803e3d6000fd5b505050506040513d602081101561135f57600080fd5b5051935061136f85858b8b611bdb565b811561139f5760085461139b906001600160701b0380821691600160701b90041663ffffffff611ad616565b600b555b604080518c8152602081018c905281516001600160a01b038f169233927fdccd412f0b1252819cb1fd330b93224ca42612892bb3f4f789976e6d81936496929081900390910190a35050505050505050506001600c81905550915091565b604051806040016040528060068152602001652aa72496ab1960d11b81525081565b6000610bba338484611e02565b6103e881565b600c5460011461147d576040805162461bcd60e51b8152602060048201526011602482015270155b9a5cddd85c158c8e881313d0d2d151607a1b604482015290519081900360640190fd5b6000600c55600654600754600854604080516370a0823160e01b815230600482015290516001600160a01b03948516949093169261152c9285928792611527926001600160701b03169185916370a0823191602480820192602092909190829003018186803b1580156114ef57600080fd5b505afa158015611503573d6000803e3d6000fd5b505050506040513d602081101561151957600080fd5b50519063ffffffff611b8b16565b61193c565b600854604080516370a0823160e01b81523060048201529051611593928492879261152792600160701b90046001600160701b0316916001600160a01b038616916370a0823191602480820192602092909190829003018186803b1580156114ef57600080fd5b50506001600c5550565b6005546001600160a01b031681565b6007546001600160a01b031681565b42841015611605576040805162461bcd60e51b8152602060048201526012602482015271155b9a5cddd85c158c8e881156141254915160721b604482015290519081900360640190fd5b6003546001600160a01b0380891660008181526004602090815260408083208054600180820190925582517f6e71edae12b1b97f4d1f60370fef10105fa2faae0126114a169c64845d6126c98186015280840196909652958d166060860152608085018c905260a085019590955260c08085018b90528151808603909101815260e08501825280519083012061190160f01b6101008601526101028501969096526101228085019690965280518085039096018652610142840180825286519683019690962095839052610162840180825286905260ff89166101828501526101a284018890526101c28401879052519193926101e280820193601f1981019281900390910190855afa158015611720573d6000803e3d6000fd5b5050604051601f1901519150506001600160a01b038116158015906117565750886001600160a01b0316816001600160a01b0316145b6117a7576040805162461bcd60e51b815260206004820152601c60248201527f556e697377617056323a20494e56414c49445f5349474e415455524500000000604482015290519081900360640190fd5b6117b2898989611da0565b505050505050505050565b600260209081526000928352604080842090915290825290205481565b600c54600114611825576040805162461bcd60e51b8152602060048201526011602482015270155b9a5cddd85c158c8e881313d0d2d151607a1b604482015290519081900360640190fd5b6000600c55600654604080516370a0823160e01b81523060048201529051611935926001600160a01b0316916370a08231916024808301926020929190829003018186803b15801561187657600080fd5b505afa15801561188a573d6000803e3d6000fd5b505050506040513d60208110156118a057600080fd5b5051600754604080516370a0823160e01b815230600482015290516001600160a01b03909216916370a0823191602480820192602092909190829003018186803b1580156118ed57600080fd5b505afa158015611901573d6000803e3d6000fd5b505050506040513d602081101561191757600080fd5b50516008546001600160701b0380821691600160701b900416611bdb565b6001600c55565b604080518082018252601981527f7472616e7366657228616464726573732c75696e74323536290000000000000060209182015281516001600160a01b0385811660248301526044808301869052845180840390910181526064909201845291810180516001600160e01b031663a9059cbb60e01b1781529251815160009460609489169392918291908083835b602083106119e95780518252601f1990920191602091820191016119ca565b6001836020036101000a0380198251168184511680821785525050505050509050019150506000604051808303816000865af19150503d8060008114611a4b576040519150601f19603f3d011682016040523d82523d6000602084013e611a50565b606091505b5091509150818015611a7e575080511580611a7e5750808060200190516020811015611a7b57600080fd5b50515b611acf576040805162461bcd60e51b815260206004820152601a60248201527f556e697377617056323a205452414e534645525f4641494c4544000000000000604482015290519081900360640190fd5b5050505050565b6000811580611af157505080820282828281611aee57fe5b04145b610bbe576040805162461bcd60e51b815260206004820152601460248201527364732d6d6174682d6d756c2d6f766572666c6f7760601b604482015290519081900360640190fd5b60006003821115611b7c575080600160028204015b81811015611b7657809150600281828581611b6557fe5b040181611b6e57fe5b049050611b4e565b50611b86565b8115611b86575060015b919050565b80820382811115610bbe576040805162461bcd60e51b815260206004820152601560248201527464732d6d6174682d7375622d756e646572666c6f7760581b604482015290519081900360640190fd5b6001600160701b038411801590611bf957506001600160701b038311155b611c40576040805162461bcd60e51b8152602060048201526013602482015272556e697377617056323a204f564552464c4f5760681b604482015290519081900360640190fd5b60085463ffffffff42811691600160e01b90048116820390811615801590611c7057506001600160701b03841615155b8015611c8457506001600160701b03831615155b15611cf5578063ffffffff16611cb285611c9d86612166565b6001600160e01b03169063ffffffff61217816565b600980546001600160e01b03929092169290920201905563ffffffff8116611cdd84611c9d87612166565b600a80546001600160e01b0392909216929092020190555b600880546dffffffffffffffffffffffffffff19166001600160701b03888116919091176dffffffffffffffffffffffffffff60701b1916600160701b8883168102919091176001600160e01b0316600160e01b63ffffffff871602179283905560408051848416815291909304909116602082015281517f1c411e9a96e071241c2f21f7726b17ae89e3cab4c78be50e062b03a9fffbbad1929181900390910190a1505050505050565b6001600160a01b03808416600081815260026020908152604080832094871680845294825291829020859055815185815291517f8c5be1e5ebec7d5bd14f71427d1e84f3dd0314c0f7b2291e5b200ac8c7c3b9259281900390910190a3505050565b6001600160a01b038316600090815260016020526040902054611e2b908263ffffffff611b8b16565b6001600160a01b038085166000908152600160205260408082209390935590841681522054611e60908263ffffffff61219d16565b6001600160a01b0380841660008181526001602090815260409182902094909455805185815290519193928716927fddf252ad1be2c89b69c2b068fc378daa952ba7f163c4a11628f55a4df523b3ef92918290030190a3505050565b600080600560009054906101000a90046001600160a01b03166001600160a01b031663017e7e586040518163ffffffff1660e01b815260040160206040518083038186803b158015611f0d57600080fd5b505afa158015611f21573d6000803e3d6000fd5b505050506040513d6020811015611f3757600080fd5b5051600b546001600160a01b038216158015945091925090612006578015612001576000611f7a610a1a6001600160701b0388811690881663ffffffff611ad616565b90506000611f8783611b39565b905080821115611ffe576000611fb5611fa6848463ffffffff611b8b16565b6000549063ffffffff611ad616565b90506000611fda83611fce86600563ffffffff611ad616565b9063ffffffff61219d16565b90506000818381611fe757fe5b0490508015611ffa57611ffa878261201a565b5050505b50505b612012565b8015612012576000600b555b505092915050565b60005461202d908263ffffffff61219d16565b60009081556001600160a01b038316815260016020526040902054612058908263ffffffff61219d16565b6001600160a01b03831660008181526001602090815260408083209490945583518581529351929391927fddf252ad1be2c89b69c2b068fc378daa952ba7f163c4a11628f55a4df523b3ef9281900390910190a35050565b60008183106120bf57816120c1565b825b9392505050565b6001600160a01b0382166000908152600160205260409020546120f1908263ffffffff611b8b16565b6001600160a01b0383166000908152600160205260408120919091555461211e908263ffffffff611b8b16565b60009081556040805183815290516001600160a01b038516917fddf252ad1be2c89b69c2b068fc378daa952ba7f163c4a11628f55a4df523b3ef919081900360200190a35050565b6001600160701b0316600160701b0290565b60006001600160701b0382166001600160e01b0384168161219557fe5b049392505050565b80820182811015610bbe576040805162461bcd60e51b815260206004820152601460248201527364732d6d6174682d6164642d6f766572666c6f7760601b604482015290519081900360640190fdfe556e697377617056323a20494e53554646494349454e545f4f55545055545f414d4f554e54556e697377617056323a20494e53554646494349454e545f494e5055545f414d4f554e54556e697377617056323a20494e53554646494349454e545f4c4951554944495459556e697377617056323a20494e53554646494349454e545f4c49515549444954595f4255524e4544556e697377617056323a20494e53554646494349454e545f4c49515549444954595f4d494e544544a265627a7a7231582070a9b8384d7f72518fd1b32606b6064d3d3fde68a3839d99a486016a5a2646b064736f6c63430005100032454950373132446f6d61696e28737472696e67206e616d652c737472696e672076657273696f6e2c75696e7432353620636861696e49642c6164647265737320766572696679696e67436f6e747261637429a265627a7a72315820e3e9d688ef034a5dd8866460ccdff7e560e3e246ff093492a828453af8ff003964736f6c63430005100032",
    "linkReferences": {}
  }
}